:100000000C9462000C948A000C948A000C948A0070
:100010000C948A000C948A000C948A000C940505B8
:100020000C948A000C948A000C948A000C948A0028
:100030000C948A000C948A000C948A000C948A0018
:100040000C9463040C948A000C94D3040C94AD04B7
:100050000C948A000C948A000C948A000C948A00F8
:100060000C948A000C948A000000000023002600F3
:10007000290000000008000201000003040700003E
:1000800000000000000000000000250028002B00F8
:1000900000000000240027002A00040404040404D3
:1000A0000404020202020202030303030303010227
:1000B00004081020408001020408102001020408F6
:1000C00010207B0511241FBECFEFD8E0DEBFCDBFCF
:1000D00011E0A0E0B1E0EAE7FEE002C005900D9279
:1000E000A638B107D9F722E0A6E8B1E001C01D9219
:1000F000A835B207E1F710E0C2E6D0E004C02197CE
:10010000FE010E943007C136D107C9F70E94B7052A
:100110000C943B070C94000090E0FC01E255FF4F6B
:100120002491FC01E656FF4F8491882399F090E0DA
:10013000880F991FFC01E057FF4FA591B491FC0176
:10014000EA57FF4F859194918FB7F894EC91E22B89
:10015000EC938FBF089590E0FC01EE58FF4F24917F
:10016000FC01E255FF4F3491FC01E656FF4FE4914C
:10017000EE2309F43CC0222339F1233091F038F406
:100180002130A9F0223001F584B58F7D12C02730CF
:1001900091F02830A1F02430B9F4809180008F7D57
:1001A00003C0809180008F77809380000DC084B55C
:1001B0008F7784BD09C08091B0008F7703C0809194
:1001C000B0008F7D8093B000F0E0EE0FFF1FEA5784
:1001D000FF4FA591B4919FB7F894611104C08C9121
:1001E0003095382302C0EC913E2B3C939FBF08957D
:1001F0003FB7F8948091930190919401A09195015B
:10020000B091960126B5A89B05C02F3F19F0019625
:10021000A11DB11D3FBFBA2FA92F982F8827820F8C
:10022000911DA11DB11DBC01CD0142E0660F771FDC
:10023000881F991F4A95D1F70895CF92DF92EF92C8
:10024000FF920F931F93CF93DF936C017A018B0181
:10025000C0E0D0E0CE15DF0581F0D8016D918D01B1
:10026000D601ED91FC910190F081E02DC601099538
:10027000892B11F02196EECF7E01C701DF91CF913E
:100280001F910F91FF90EF90DF90CF900895089508
:1002900080E090E00895FC01538D448D252F30E0DF
:1002A000842F90E0821B930B541710F0CF96089583
:1002B00001970895FC01918D828D981761F0828DD0
:1002C000DF01A80FB11D5D968C91928D9F5F9F738A
:1002D000928F90E008958FEF9FEF0895FC01918D2C
:1002E000828D981731F0828DE80FF11D858D90E099
:1002F00008958FEF9FEF0895FC01918D228D892F36
:1003000090E0805C9F4F821B91098F73992708951D
:1003100087E991E00E947C0121E0892B09F420E02B
:10032000822F0895FC01848DDF01A80FB11DA35A0F
:10033000BF4F2C91848D90E001968F739927848F05
:10034000A689B7892C93A089B1898C918370806428
:100350008C93938D848D981306C00288F389E02DC9
:1003600080818F7D80830895EF92FF920F931F937A
:10037000CF93DF93EC0181E0888F9B8D8C8D981358
:1003800005C0E889F989808185FD26C0F62E0B8D90
:1003900010E00F5F1F4F0F731127E02E8C8DE812B6
:1003A0000CC00FB607FCFACFE889F989808185FF78
:1003B000F5CFCE010E949201F1CF8B8DFE01E80FA7
:1003C000F11DE35AFF4FF0829FB7F8940B8FEA8933
:1003D000FB89808180620AC09FB7F894EE89FF890B
:1003E0006083E889F98980818370806480839FBFFE
:1003F00081E090E0DF91CF911F910F91FF90EF90FE
:100400000895CF93DF93EC01888D8823C9F0EA89A2
:10041000FB89808185FD05C0A889B9898C9186FDFD
:100420000FC00FB607FCF5CF808185FFF2CFA889FA
:10043000B9898C9185FFEDCFCE010E949201E7CF63
:10044000DF91CF91089580E090E0892B29F00E9400
:10045000880181110C940000089561E084E00E94FD
:10046000AB0061E085E00E94AB0061E086E00E94A5
:10047000AB0061E087E00C94AB002F923F924F926B
:100480005F926F927F928F929F92AF92BF92CF9224
:10049000DF92EF92FF920F931F93CF93DF93CDB72D
:1004A000DEB72A970FB6F894DEBF0FBECDBF8C0122
:1004B0001A821982E12C55E0F52E6BE0262E312CA4
:1004C00073E2C72ED12C0E94F8004B015C01D801C9
:1004D0001A96ED91FC911B97908114968C9114972C
:1004E000892B80831696ED91FC9117979081149635
:1004F0008C911497809589238083C1010197F1F72E
:100500001696ED91FC911797908114968C91149703
:10051000892B8083C6010197F1F71696ED91FC9126
:100520001797908114968C911497809589238083D6
:100530001A96ED91FC911B97908114968C911497CB
:100540008095892380831896ED91FC91199790816D
:1005500015968C91892309F0EDC00E94F800F801EE
:10056000248535852901612C712CF8EA4F0EF6E1BE
:100570005F1E611C711CDC01CB01840D951DA61D45
:10058000B71DF80186879787A08BB18BD801189685
:10059000ED91FC911997908115968C91892369F4BE
:1005A0000E94F800F80146845784608871884616D6
:1005B00057066806790650F7BDC00E94F800D801BA
:1005C0001C962D913C911D97DC01CB01820F931F4E
:1005D000A11DB11DF80186879787A08BB18BD8012B
:1005E0001896ED91FC911997908115968C9189231D
:1005F00069F00E94F800F801468457846088718889
:10060000461657066806790650F794C00E94F8000F
:10061000D8011C962D913C911D97A9014550510977
:100620001E962D913C911F97FA01E21BF30B6E0F62
:100630007F1F6115710509F47DC0E11002C080E0E3
:100640001FC08E2D282F30E0F9013197EE0FFF1FCC
:1006500041E050E04C0F5D1FE40FF51F40815181D8
:100660004617570768F4220F331FE1E0F0E0EC0F64
:10067000FD1FE20FF31F51834083815019F7DFCF35
:10068000FE013196E80FF11DE80FF11D71836083C3
:10069000E394EF1408F050C00E94F800DC01CB0195
:1006A00088199909AA09BB0988349147A105B105A0
:1006B00008F009CF0E94F800F8E48F0EF1E79F1EC2
:1006C000A11CB11CA5019401261B370B480B590B2B
:1006D000CA01B90128EE33E040E050E00E940E0765
:1006E00049015A010E94F8002B013C018114910438
:1006F000A104B10409F4E7CE0E94F800DC01CB01AB
:1007000084199509A609B709883E9340A105B1054A
:1007100068F381E0881A9108A108B108A8EE4A0E92
:10072000A3E05A1E611C711C81149104A104B10440
:1007300019F7DCCFFA94ADCF8F2D8E7FFE01E80F35
:10074000F11D6181728180E090E02A960FB6F894E5
:10075000DEBF0FBECDBFDF91CF911F910F91FF90F4
:10076000EF90DF90CF90BF90AF909F908F907F9051
:100770006F905F904F903F902F900895009769F091
:10078000FC0101900020E9F73197AF01481B590B9C
:10079000BC0187E991E00C941D0180E090E0089590
:1007A0008F929F92AF92BF92CF92DF92EF92FF9281
:1007B0000F931F93CF93DF93CDB7DEB7A1970FB6FB
:1007C000F894DEBF0FBECDBF6C01990FEE08FF0895
:1007D000F7FE2BC06DE287E991E00E94B4018C0125
:1007E00022273327A9012C193D094E095F0919A2B7
:1007F000CE0181967C019AE0892E912CA12CB12CFE
:10080000CA01B901A50194010E940E07605DF701BC
:1008100062937F01211531054105510589F7CF010B
:100820000E94BE03800F911F1DC0A701960119A24F
:100830008E010F5D1F4F8AE0C82ED12CE12CF12CC8
:10084000CA01B901A70196010E940E07605DF80177
:1008500062938F01211531054105510589F7CF01BB
:100860000E94BE03A1960FB6F894DEBF0FBECDBFA7
:10087000DF91CF911F910F91FF90EF90DF90CF907C
:10088000BF90AF909F908F900895CF93DF930E9479
:10089000D003EC0182E191E00E94BE038C0F9D1F0A
:1008A000DF91CF910895CF93DF930E94BE03EC01B7
:1008B00082E191E00E94BE038C0F9D1FDF91CF91DA
:1008C00008950E9436071F920F920FB60F921124BF
:1008D0002F933F938F939F93AF93BF9380918F01FB
:1008E00090919001A0919101B091920130918E016F
:1008F00023E0230F2D3720F40196A11DB11D05C063
:1009000026E8230F0296A11DB11D20938E0180932E
:100910008F0190939001A0939101B09392018091E7
:10092000930190919401A0919501B0919601019647
:10093000A11DB11D8093930190939401A093950103
:10094000B0939601BF91AF919F918F913F912F915D
:100950000F900FBE0F901F9018951F920F920FB619
:100960000F9211242F933F934F935F936F937F9335
:100970008F939F93AF93BF93EF93FF9387E991E09A
:100980000E949201FF91EF91BF91AF919F918F9142
:100990007F916F915F914F913F912F910F900FBE7B
:1009A0000F901F9018951F920F920FB60F9211245F
:1009B0002F938F939F93EF93FF93E091A701F09173
:1009C000A8018081E091AD01F091AE0182FD12C0DD
:1009D00090818091B0018F5F8F732091B101821758
:1009E00051F0E091B001F0E0E956FE4F958F809311
:1009F000B00101C08081FF91EF919F918F912F9164
:100A00000F900FBE0F901F9018951F920F920FB668
:100A10000F9211242F933F934F935F936F937F9384
:100A20008F939F93AF93BF93EF93FF93E0E0F0E03A
:100A30000995FF91EF91BF91AF919F918F917F9118
:100A40006F915F914F913F912F910F900FBE0F903B
:100A50001F901895DC0170E0FB01E255FF4FE49117
:100A60001496EC93149750E0FA01E255FF4FE4918D
:100A70001596EC93159766567F4FFB018491E82FEE
:100A8000F0E0EE0FFF1FEA57FF4F85919491179604
:100A90009C938E931697FA01E656FF4FE491F0E08F
:100AA000EE0FFF1FE859FF4F8591949119969C9383
:100AB0008E931897FB016491E62FF0E0EE0FFF1F75
:100AC000E057FF4F859194911B969C938E931A97B4
:100AD0002F5F3F4F49E3429FC001439F900D112478
:100AE0008E38FFE69F0710F08DE89FE61D969C93D9
:100AF0008E931C970895E7E9F1E01382128288EE45
:100B000093E0A0E0B0E084839583A683B78384E07C
:100B100091E09183808385EC90E09587848784ECD5
:100B200090E09787868780EC90E0918B808B81ECBA
:100B300090E0938B828B82EC90E0958B848B86EC9B
:100B400090E0978B868B118E128E138E148E28EC6C
:100B500030E049E068E086E492E00E942A0528EC53
:100B600030E04BE06AE084E392E00C942A0578944C
:100B700084B5826084BD84B5816084BD85B58260A2
:100B800085BD85B5816085BD80916E008160809353
:100B90006E001092810080918100826080938100BC
:100BA00080918100816080938100809180008160CC
:100BB000809380008091B10084608093B100809127
:100BC000B00081608093B00080917A00846080934F
:100BD0007A0080917A00826080937A0080917A0016
:100BE000816080937A0080917A00806880937A0097
:100BF0001092C100E091A701F091A80182E08083EA
:100C0000E091A301F091A4011082E091A501F0917F
:100C1000A6018FEC80831092AF01E091AB01F091BF
:100C2000AC0186E08083E091A901F091AA01808166
:100C300080618083E091A901F091AA0180818860A0
:100C40008083E091A901F091AA018081806880836E
:100C5000E091A901F091AA0180818F7D808384E0D9
:100C60000E948C0085E00E948C0086E00E948C002F
:100C700087E00E948C00C9E3D0E004E110E08FE03F
:100C8000E82EF12C86E492E00E943D02CB01BE01E9
:100C90000E94FA066F31710528F470938D016093FC
:100CA0008C0104C010938D0100938C0180918C0104
:100CB00090918D01059724F4F0928D01E0928C01C2
:100CC000C0908C01D0908D0184E392E00E943D029F
:100CD000CB01BE010E94FA066F31710528F47093B2
:100CE0008B0160938A0104C010938B0100938A01E9
:100CF00085E0C816D10424F4F0928D01E0928C01B5
:100D000080918A0190918B0120918C0130918D010D
:100D10002115310549F40097C9F584E191E00E945D
:100D200053040E942D0263C08A309105B4F42A3026
:100D3000310594F561E084E00E94AB0060E085E05D
:100D40000E94AB0061E086E00E94AB0060E087E0BB
:100D50000E94AB0085E191E038C085319105E4F057
:100D60002531310524F161E085E00E94AB0060E0AF
:100D700084E00E94AB0061E087E00E94AB0060E08D
:100D800086E00E94AB008BE391E01FC08A309105A2
:100D90008CF2853191055CF48217930744F4281B8B
:100DA000390B233031056CF08EE491E00EC028172A
:100DB00039073CF4821B930B03971CF081E691E00A
:100DC00004C00E942D0283E791E00E9453048091A9
:100DD0008A0190918B010E94D00388E291E00E94E9
:100DE000BE0380918C0190918D010E9445040E9468
:100DF000230248CFAA1BBB1B51E107C0AA1FBB1F80
:100E0000A617B70710F0A61BB70B881F991F5A9596
:100E1000A9F780959095BC01CD010895A1E21A2E05
:100E2000AA1BBB1BFD010DC0AA1FBB1FEE1FFF1F8E
:100E3000A217B307E407F50720F0A21BB30BE40BDE
:100E4000F50B661F771F881F991F1A9469F7609525
:100E50007095809590959B01AC01BD01CF010895DF
:100E6000EE0FFF1F0590F491E02D099481E090E0D2
:0A0E7000F8940C943B07F894FFCFB0
:100E7A0000000000B4011D014B0101027C015A016E
:100E8A006E010D0A00202020202020204241434BE1
:100E9A002020202020202000202D2D2D2D2D2D2D0D
:100EAA002D2D2D2D2D2D2D2D2D20002020202020E3
:100EBA002020415441434B202020202020004C4533
:100ECA0046542020202020202020202020202020BE
:100EDA0000202020202020202020202020524947A6
:100EEA004854002020202020202053544F502020F6
:060EFA0020202020000072
:00000001FF
